:0400000093EF30F05A
:1060E000036E000E026E3A0E035CD8B005D02F0E80
:1060F000036402D0010E026E02C001F001301200F2
:1061000001500302F3CF05F0F4CF06F00150040272
:10611000F350062602500302F350062605C001F094
:1061200006C002F0120000EEF8F0080EEE6AE80673
:10613000FDE100EE3BF00C0EEE6AE806FDE1340EE8
:10614000F66E640EF76E000EF86E01EE00F010EEC3
:10615000DEF00900F5CFEEFFE550E150FAE1000E68
:10616000F86E000148EF37F00DD00450800F08D0D2
:106170000450C00F05D00450940F02D00450D40F27
:106180000A6E15D006C008F007C009F00950000AD1
:10619000D8A40DD00850010AD8B4E7D7030AD8B460
:1061A000E7D7010AD8B4E7D7070AD8B4E7D70A5027
:1061B00088EC33F01200000E096E000E0A6E000E1D
:1061C0000B6E000E0C6E01A008D00550092606507B
:1061D0000A2207500B2208500C22D89005360636AA
:1061E00007360836D89004320332023201320450A6
:1061F000011002100310D8A4E6D709C001F00AC0AC
:1062000002F00BC003F00CC004F01200076E0DD0BA
:106210000450800F08D00450C00F05D00450940FD4
:1062200002D00450D40F086E0DD00750010AD8B424
:10623000EFD7030AD8B4EFD7010AD8B4EFD7070ACB
:10624000D8B4EFD7085088EC33F009D005C0D9FF97
:1062500006C0DAFFDF50AFEC34F0054A062A05C06D
:10626000D9FF06C0DAFFDF50D8B41200EFD7076EAF
:106270000DD00450800F08D00450C00F05D004503A
:10628000940F02D00450D40F086E0DD00750010AAD
:10629000D8B4EFD7030AD8B4EFD7010AD8B4EFD7F0
:1062A000070AD8B4EFD7085088EC33F00AD005C0FD
:1062B000F6FF06C0F7FF0800F550AFEC34F0054AD2
:1062C000062A05C0F6FF06C0F7FF0800F5500009D2
:1062D000D8B41200ECD7000E096E000E0A6E000E44
:1062E0000B6E000E0C6E0850051006100710D8B487
:1062F0002AD0010E0D6E06D0D89005360636073628
:1063000008360D2A08AEF8D7D89009360A360B366B
:106310000C360550015C06500258075003580850CF
:106320000458D8A009D00550015E0650025A075003
:10633000035A0850045A0980D890083207320632AE
:1063400005320D2EE1D709C001F00AC002F00BC0E2
:1063500003F00CC004F01200000E0A6E0450800A14
:10636000800F08E1000E035C05E1000E025C02E113
:10637000000E015CD8B00AD0041E031E021E016C80
:10638000000E022203220422010E0A6E0850800A27
:10639000800F08E1000E075C05E1000E065C02E1DB
:1063A000000E055CD8B008D0081E071E061E056C3E
:1063B000000E0622072208220850051006100710BA
:1063C000D8B424D0010E096E06D0D8900536063612
:1063D00007360836092A08AEF8D70550015C065082
:1063E00002580750035808500458D8A008D0055048
:1063F000015E0650025A0750035A0850045AD890BA
:106400000832073206320532092EE7D70A50D8B4CF
:1064100008D0041E031E021E016C000E022203227D
:10642000042201C001F002C002F003C003F004C066
:1064300004F01200040008000C0010001400180002
:106440001C002000240028002C00300034003800FC
:106450003C004000440048004C00500054005800EC
:106460005C006000640060005C0058005400500054
:106470004C004800440040003C003800340030002C
:106480002C002800240020001C001800140010001C
:106490000C00080004000000FCFF3200230015007F
:1064A0000A000200000002000A001500230032006A
:1064B00041004F005A006200640062005A004F0021
:1064C00041003200230015000A0002000000020013
:1064D0000A0015002300320041004F005A006200FC
:1064E000640062005A004F00410032002300150092
:1064F0000A000200000002000A001500230032001A
:1065000041004F005A006200640062005A004F00D0
:106510004100000E0A6E0850800A800F08E1000E4C
:10652000075C05E1000E065C02E1000E055CD8B0D8
:106530000AD0081E071E061E056C000E0622072242
:106540000822010E0A6E0450800A800F08E1000E36
:10655000035C05E1000E025C02E1000E015CD8B0B4
:106560000AD0041E031E021E016C000E022203222A
:106570000422010E0A1A000E0B6E000E0C6E000EA5
:106580000D6E000E0E6E0850051006100710D8B4E0
:106590002AD0010E096E06D0D89005360636073689
:1065A0000836092A08AEF8D7D8900B360C360D36C7
:1065B0000E360550015C065002580750035808502B
:1065C0000458D8A009D00550015E0650025A075061
:1065D000035A0850045A0B80D8900832073206320A
:1065E0000532092EE1D70A50D8B408D00E1E0D1E70
:1065F0000C1E0B6C000E0C220D220E220BC001F0A3
:106600000CC002F00DC003F00EC004F0120006D062
:10661000010E0726000E0822000E092207C0F6FF11
:1066200008C0F7FF09C0F8FF0800F550200AD8B4E9
:10663000EFD707C0F6FF08C0F7FF09C0F8FF080052
:10664000F550090AD8B4E4D7000E0E6E000E0D6E98
:10665000000E0C6E07C0F6FF08C0F7FF09C0F8FF78
:106660000800F5502D0AD8A402D00C2A2AD007C061
:10667000F6FF08C0F7FF09C0F8FF0800F5502B0A25
:10668000D8A425D01ED00DC001F00EC002F0000E1F
:10669000046E0A0E036E80EC30F007C0F6FF08C0EF
:1066A000F7FF09C0F8FF0800F5500A6E0B6A0150A9
:1066B0000A2602500B22D00E0A240D6EFF0E0B206C
:1066C0000E6E010E0726000E0822000E092207C0DA
:1066D000F6FF08C0F7FF09C0F8FF0800F55070EC9E
:1066E00030F0D8B0D0D70C50D8B40DD00DC00AF0CF
:1066F0000EC00BF00A1E0B1E0A4A0B2A0AC007F036
:106700000BC008F012000DC007F00EC008F0120018
:10671000036E83948390016A03AE01D0012A010EB7
:10672000011601320132835001187F0B0118836E6C
:1067300003C001F0060E026ED8900132022EFCD783
:10674000010E0116013A0146014683500118BF0BA4
:106750000118836E03C001F0050E026ED89001325D
:10676000022EFCD7010E0116013A01468350011892
:10677000DF0B0118836E03C001F0013A0F0E011602
:10678000010E0116013A83500118EF0B0118836EB8
:10679000030EE82EFED700F0838400F000D000D076
:1067A000839403C001F0D8900132D8900132D89080
:1067B0000132010E011601320132835001187F0BA4
:1067C0000118836E03C001F0D8900132D8900132D5
:1067D000010E0116013A0146014683500118BF0B14
:1067E0000118836E03C001F0D8900132010E01162A
:1067F000013A014683500118DF0B0118836E03C074
:1068000001F0010E0116013A83500118EF0B011837
:10681000836E030EE82EFED700F0838400F000D0D4
:1068200000D08394080E016E230EE82EFED7012EB1
:10683000FCD700F01200959E959C959A959895949A
:1068400095909592839E839C839A8398839483905A
:106850008392080E046E230EE82EFED7042EFCD77A
:1068600000F0080E046E230EE82EFED7042EFCD78F
:1068700000F0080E046E230EE82EFED7042EFCD77F
:1068800000F0080E046E230EE82EFED7042EFCD76F
:1068900000F0080E046E230EE82EFED7042EFCD75F
:1068A00000F0080E046E230EE82EFED7042EFCD74F
:1068B00000F0010E056E1ED0839E839C838A838820
:1068C00083948390839E839C838A8388838483902C
:1068D00000F000D000D0839E839C838A83888394B9
:1068E0008390080E046E230EE82EFED7042EFCD7EC
:1068F00000F0052A030E0564DFD7839E839C838AFC
:10690000839883948390839E839C838A83988384D3
:10691000839000F000D000D0839E839C838A83986C
:1069200083948390080E046E230EE82EFED7042E67
:10693000FCD700F0280E056E055088EC33F0100EE1
:10694000056E055088EC33F0010E056E055088EC9D
:1069500033F00F0E056E055088EC33F01200036E15
:1069600083948380016A03AE01D0012A010E0116CF
:1069700001320132835001187F0B0118836E03C06E
:1069800001F0060E026ED8900132022EFCD7010EE5
:106990000116013A0146014683500118BF0B011848
:1069A000836E03C001F0050E026ED8900132022EF4
:1069B000FCD7010E0116013A014683500118DF0B86
:1069C0000118836E03C001F0013A0F0E0116010E8B
:1069D0000116013A83500118EF0B0118836E030E64
:1069E000E82EFED700F0838400F000D000D083941E
:1069F00003C001F0D8900132D8900132D890013212
:106A0000010E011601320132835001187F0B01186B
:106A1000836E03C001F0D8900132D8900132010E8C
:106A20000116013A0146014683500118BF0B0118B7
:106A3000836E03C001F0D8900132010E0116013AB5
:106A4000014683500118DF0B0118836E03C001F06B
:106A5000010E0116013A83500118EF0B0118836EE5
:106A6000030EE82EFED700F0838400F000D000D0A3
:106A7000839400F000D000D0080E016E230EE82EA3
:106A8000FED7012EFCD700F01200000E306E000E73
:106A90002F6E000E316E0FC034F010C035F011C0F3
:106AA00036F012C037F0000E336E2E0E326E32C04A
:106AB000D9FF33C0DAFF000EDF6E3750800A800F37
:106AC00008E1000E365C05E1000E355C02E1000EC7
:106AD000345CD8B01AD034C001F035C002F036C0F2
:106AE00003F037C004F0FF0E056EFF0E066EFF0EBA
:106AF000076EFF0E086EDBEC30F001C034F002C010
:106B000035F003C036F004C037F03206D8A03306A3
:106B100034C001F035C002F036C003F037C004F0D5
:106B20000A0E056E000E066E000E076E000E086E51
:106B3000ACEC31F001C015F002C016F003C017F044
:106B400004C018F015C02FF016C030F02F50300FD1
:106B500032C0D9FF33C0DAFFDF6E34C001F035C078
:106B600002F036C003F037C004F00A0E056E000EC6
:106B7000066E000E076E000E086E89EC32F001C042
:106B800034F002C035F003C036F004C037F037509F
:106B9000341035103610D8A4B8D71250800A800FA0
:106BA00008E1000E115C05E1000E105C02E1000E30
:106BB0000F5CD8B009D03206D8A0330632C0D9FF56
:106BC00033C0DAFF2D0EDF6E32C015F033C016F081
:106BD000151E161E154A162A150E1526000E16220B
:106BE0001A0E176E000E186E155017261650182222
:106BF00017C034F018C035F0000E35BEFF0E366EEB
:106C0000376E000E316E13D03150010DF350322427
:106C1000D96EF4503320DA6E3150010DF350132445
:106C2000E16EF4501420E26EDFCFE7FF312A31C06D
:106C300015F0166A176A186A1850800A196E3450CF
:106C4000155C35501658365017583750800A195869
:106C5000D8A0DAD7FF0E34240F6EFF0E3520106E49
:106C600012009492000E176E010E166E000E1A6E30
:106C7000090E1B6E3D0E1C6E000E1D6E1AC001F03B
:106C80001BC002F01CC003F01DC004F010C005F0D2
:106C900011C006F0076A086A6BEC31F001C01AF007
:106CA00002C01BF003C01CF004C01DF01AC012F09B
:106CB0001BC013F01CC014F01DC015F0030E05D04E
:106CC000D8901532143213321232E82EF9D712C08E
:106CD0001AF013C01BF014C01CF015C01DF0000EFC
:106CE000BA6E28D016C012F017C013F0D890123622
:106CF0001336D8901236133612C016F013C017F0A0
:106D0000BA2A1AC012F01BC013F01CC014F01DC028
:106D100015F0030E05D0D89015321432133212320A
:106D2000E82EF9D712C01AF013C01BF014C01CF0E3
:106D300015C01DF0010E126E010E136E000E146EC2
:106D4000000E156E12501A5C13501B5814501C582C
:106D500015501D58D8B0C6D71A06000E1B5A1C5A1B
:106D60001D5A1AC0BBFF1AC01EF01BC01FF01CC06A
:106D700020F01DC021F0010E1E26000E1F22202231
:106D800021220EC001F00FC002F0036A046A1EC087
:106D900005F01FC006F020C007F021C008F0DBECB2
:106DA00030F001C01EF002C01FF003C020F004C08C
:106DB00021F01EC012F01FC013F020C014F021C03B
:106DC00015F0020ED8901236133614361536E82E0A
:106DD000F9D712C01EF013C01FF014C020F015C068
:106DE00021F01EC001F01FC002F020C003F021C03E
:106DF00004F0640E056E000E066E000E076E000EA7
:106E0000086E6BEC31F001C01EF002C01FF003C031
:106E100020F004C021F01EC018F01FC019F0030EAE
:106E20001814186E196A18C012F019C013F0123A2B
:106E3000133AF00E131612500F0B1312F00E121617
:106E400012C018F013C019F00C0E976E975018105E
:106E5000976E1EC012F01FC013F020C014F021C0A6
:106E600015F0030E05D0D8901532143213321232B9
:106E7000E82EF9D712C01EF013C01FF014C020F086
:106E800015C021F01EC090FFBA84000EBC6E120027
:106E9000310E0001F76F000E0001EF6F000E0001D0
:106EA000F06F000E0001F66F000E0001F56F000E8E
:106EB0000001F26F000E0001F16F000E0001F46F8F
:106EC000000E0001F36F000E0F015E6F1BEC34F03B
:106ED0009280928292849286000E0F015B6F80A056
:106EE0000AD00001F84BF92B0D0E386EFC0EE82E7F
:106EF000FED7382EFCD780A20BD00001F807D8A00F
:106F0000F9070D0E386EFC0EE82EFED7382EFCD792
:106F10000001F951F811D8A42FD01BEC34F0010E68
:106F200088EC33F00C0E88EC33F0010E046E7E0E0C
:106F3000066EC90E056E010E37EC31F0010E046EBF
:106F40007E0E066ED90E056E020E37EC31F0820E03
:106F5000386EDE0EE82EFED7382EFCD7820E386E45
:106F6000DE0EE82EFED7382EFCD7820E386EDE0EEF
:106F7000E82EFED7382EFCD70001F805F911D8A469
:106F8000B3EF3EF01BEC34F0010E88EC33F00C0E46
:106F900088EC33F0010E046E7F0E066E870E056ED0
:106FA000010E37EC31F0010E046E7F0E066E130EEB
:106FB000056E020E37EC31F0820E386EDE0EE82ED2
:106FC000FED7382EFCD7820E386EDE0EE82EFED7A6
:106FD000382EFCD7820E386EDE0EE82EFED7382E05
:106FE000FCD7820E386EDE0EE82EFED7382EFCD788
:106FF00080A4B3EF3EF0000E0001FF6F000E000111
:10700000FE6F0001F951F811D8A436D01BEC34F012
:10701000010E88EC33F00C0E88EC33F0010E046E98
:107020007F0E066E2B0E056E010E37EC31F0010E51
:10703000046E7F0E066E430E056E020E37EC31F0C5
:10704000820E386EDE0EE82EFED7382EFCD7820E6A
:10705000386EDE0EE82EFED7382EFCD7820E386E44
:10706000DE0EE82EFED7382EFCD7820E386EDE0EEE
:10707000E82EFED7382EFCD70001F805F911D8A468
:107080001DEF3DF01BEC34F0010E88EC33F00C0EDC
:1070900088EC33F0010E046E7F0E066E370E056E1F
:1070A000010E37EC31F0010E046E7F0E066E430EBA
:1070B000056E020E37EC31F0820E386EDE0EE82ED1
:1070C000FED7382EFCD7820E386EDE0EE82EFED7A5
:1070D000382EFCD7820E386EDE0EE82EFED7382E04
:1070E000FCD7820E386EDE0EE82EFED7382EFCD787
:1070F00080A41DEF3DF0000E0001FB6F000E0001AB
:10710000FA6F0001F951F811D8A436D01BEC34F015
:10711000010E88EC33F00C0E88EC33F0010E046E97
:107120007E0E066EE90E056E010E37EC31F0010E93
:10713000046E7F0E066E650E056E020E37EC31F0A2
:10714000820E386EDE0EE82EFED7382EFCD7820E69
:10715000386EDE0EE82EFED7382EFCD7820E386E43
:10716000DE0EE82EFED7382EFCD7820E386EDE0EED
:10717000E82EFED7382EFCD70001F805F911D8A467
:107180008BD01BEC34F0010E88EC33F00C0E88EC45
:1071900033F0010E046E7E0E066EF70E056E010EC4
:1071A00037EC31F0010E046E7F0E066E650E056E33
:1071B000020E37EC31F0820E386EDE0EE82EFED76E
:1071C000382EFCD7820E386EDE0EE82EFED7382E13
:1071D000FCD7820E386EDE0EE82EFED7382EFCD796
:1071E000820E386EDE0EE82EFED7382EFCD780A435
:1071F00053D0000E0001FD6F000E0001FC6F1BEC70
:1072000034F0010E88EC33F00C0E88EC33F0010EF4
:10721000046E7F0E066E770E056E010E37EC31F0B0
:10722000820E386EDE0EE82EFED7382EFCD7820E88
:10723000386EDE0EE82EFED7382EFCD780A617D08B
:107240000001F72B000E056E020E046E000E076E95
:10725000010E066EB4EC30F00001F751AFEC34F0E3
:10726000820E386EDE0EE82EFED7382EFCD7380E92
:107270000001F76503D02F0E0001F76F80B080A2E8
:1072800006D0000E0001FD6F010E0001FC6F000131
:10729000FD51FC11D8B4B3D70001F851020AF9111D
:1072A000D8A495D31BEC34F0010E88EC33F00C0E0F
:1072B00088EC33F0010E046E7E0E066EE90E056E4C
:1072C000010E37EC31F0010E046E7F0E066E6E0E6D
:1072D000056E020E37EC31F0820E386EDE0EE82EAF
:1072E000FED7382EFCD7820E386EDE0EE82EFED783
:1072F000382EFCD7820E386EDE0EE82EFED7382EE2
:10730000FCD7820E386EDE0EE82EFED7382EFCD764
:1073100080A45DD3000E466E000E456E0001F80598
:10732000F911D8A452D01BEC34F0010E88EC33F0E4
:107330000C0E88EC33F0000E046E7F0E066EA50E68
:10734000056E010E37EC31F0000E046E7F0E066EF6
:10735000AA0E056E020E37EC31F0050E046E7F0E9C
:10736000066EB40E056E010E37EC31F0050E046E9C
:107370007F0E066EBE0E056E020E37EC31F00A0E61
:10738000046E7F0E066EC80E056E010E37EC31F0EE
:107390000A0E046E7F0E066ED20E056E020E37ECDC
:1073A00031F0820E386EDE0EE82EFED7382EFCD776
:1073B000820E386EDE0EE82EFED7382EFCD7000E79
:1073C0000001F66F0A0E0001F56F0001F851020A84
:1073D000F911D8A452D01BEC34F0010E88EC33F034
:1073E0000C0E88EC33F0000E046E7F0E066EA00EBD
:1073F000056E010E37EC31F0000E046E7F0E066E46
:10740000AF0E056E020E37EC31F0050E046E7F0EE6
:10741000066EB40E056E010E37EC31F0050E046EEB
:107420007F0E066EBE0E056E020E37EC31F00A0EB0
:10743000046E7F0E066EC80E056E010E37EC31F03D
:107440000A0E046E7F0E066ED20E056E020E37EC2B
:1074500031F0820E386EDE0EE82EFED7382EFCD7C5
:10746000820E386EDE0EE82EFED7382EFCD7000EC8
:107470000001F66F140E0001F56F0001F851030AC8
:10748000F911D8A452D01BEC34F0010E88EC33F083
:107490000C0E88EC33F0000E046E7F0E066EA00E0C
:1074A000056E010E37EC31F0000E046E7F0E066E95
:1074B000AA0E056E020E37EC31F0050E046E7F0E3B
:1074C000066EB90E056E010E37EC31F0050E046E36
:1074D0007F0E066EBE0E056E020E37EC31F00A0E00
:1074E000046E7F0E066EC80E056E010E37EC31F08D
:1074F0000A0E046E7F0E066ED20E056E020E37EC7B
:1075000031F0820E386EDE0EE82EFED7382EFCD714
:10751000820E386EDE0EE82EFED7382EFCD7000E17
:107520000001F66F1E0E0001F56F0001F851040A0C
:10753000F911D8A452D01BEC34F0010E88EC33F0D2
:107540000C0E88EC33F0000E046E7F0E066EA00E5B
:10755000056E010E37EC31F0000E046E7F0E066EE4
:10756000AA0E056E020E37EC31F0050E046E7F0E8A
:10757000066EB40E056E010E37EC31F0050E046E8A
:107580007F0E066EC30E056E020E37EC31F00A0E4A
:10759000046E7F0E066EC80E056E010E37EC31F0DC
:1075A0000A0E046E7F0E066ED20E056E020E37ECCA
:1075B00031F0820E386EDE0EE82EFED7382EFCD764
:1075C000820E386EDE0EE82EFED7382EFCD7000E67
:1075D0000001F66F280E0001F56F0001F851050A51
:1075E000F911D8A452D01BEC34F0010E88EC33F022
:1075F0000C0E88EC33F0000E046E7F0E066EA00EAB
:10760000056E010E37EC31F0000E046E7F0E066E33
:10761000AA0E056E020E37EC31F0050E046E7F0ED9
:10762000066EB40E056E010E37EC31F0050E046ED9
:107630007F0E066EBE0E056E020E37EC31F00A0E9E
:10764000046E7F0E066ECD0E056E010E37EC31F026
:107650000A0E046E7F0E066ED20E056E020E37EC19
:1076600031F0820E386EDE0EE82EFED7382EFCD7B3
:10767000820E386EDE0EE82EFED7382EFCD7000EB6
:107680000001F66F320E0001F56F0001F851060A95
:10769000F911D8A452D01BEC34F0010E88EC33F071
:1076A0000C0E88EC33F0000E046E7F0E066EA00EFA
:1076B000056E010E37EC31F0000E046E7F0E066E83
:1076C000AA0E056E020E37EC31F0050E046E7F0E29
:1076D000066EB40E056E010E37EC31F0050E046E29
:1076E0007F0E066EBE0E056E020E37EC31F00A0EEE
:1076F000046E7F0E066EC80E056E010E37EC31F07B
:107700000A0E046E7F0E066ED70E056E020E37EC63
:1077100031F0820E386EDE0EE82EFED7382EFCD702
:10772000820E386EDE0EE82EFED7382EFCD7000E05
:107730000001F66F3C0E0001F56F0001F851070AD9
:10774000F911D8A440D01BEC34F0010E88EC33F0D2
:107750000C0E88EC33F0010E046E7F0E066E9A0E4E
:10776000056E010E37EC31F0010E046E7F0E066ED1
:10777000E10E056E020E37EC31F0060E046E7F0E40
:10778000066EEB0E056E010E37EC31F0060E046E40
:107790007F0E066E8E0E056E020E37EC31F0820EF5
:1077A000386EDE0EE82EFED7382EFCD7820E386EED
:1077B000DE0EE82EFED7382EFCD7000E0001F66F45
:1077C000460E0001F56F0001F851080AF911D8A41E
:1077D00040D01BEC34F0010E88EC33F00C0E88EC3A
:1077E00033F0010E046E7F0E066EDC0E056E010E88
:1077F00037EC31F0010E046E7F0E066EE60E056E5C
:10780000020E37EC31F0060E046E7F0E066EEB0EA4
:10781000056E010E37EC31F0060E046E7F0E066E1B
:107820008E0E056E020E37EC31F0820E386EDE0ED3
:10783000E82EFED7382EFCD7820E386EDE0EE82EEC
:10784000FED7382EFCD7000E0001F66F500E000157
:10785000F56F0001F851090AF911D8A440D01BECCA
:1078600034F0010E88EC33F00C0E88EC33F0010E8E
:10787000046E7F0E066EDC0E056E010E37EC31F0E5
:10788000010E046E7F0E066EE10E056E020E37ECE1
:1078900031F0060E046E7F0E066EF00E056E010EC0
:1078A00037EC31F0060E046E7F0E066E8E0E056EFE
:1078B000020E37EC31F0820E386EDE0EE82EFED767
:1078C000382EFCD7820E386EDE0EE82EFED7382E0C
:1078D000FCD7000E0001F66F5A0E0001F56F000193
:1078E000F8510A0AF911D8A440D01BEC34F0010E6B
:1078F00088EC33F00C0E88EC33F0010E046E7F0E32
:10790000066EDC0E056E010E37EC31F0010E046ED2
:107910007F0E066EE10E056E020E37EC31F0060E9C
:10792000046E7F0E066EEB0E056E010E37EC31F025
:10793000060E046E7F0E066E940E056E020E37EC78
:1079400031F0820E386EDE0EE82EFED7382EFCD7D0
:10795000820E386EDE0EE82EFED7382EFCD7000ED3
:107960000001F66F640E0001F56F80A00AD00001DF
:10797000F84BF92B0D0E386EFC0EE82EFED7382E84
:10798000FCD780A20BD00001F807D8A0F9070D0E94
:10799000386EFC0EE82EFED7382EFCD70B0E0001F9
:1079A000F85D000E0001F959D8A006D0000E0001C4
:1079B000F96F010E0001F86F80B280A404D0000EB0
:1079C000466E010E456E46504510D8B4A3D480A033
:1079D0000AD00001F84BF92B0D0E386EFC0EE82E84
:1079E000FED7382EFCD780A20BD00001F807D8A014
:1079F000F9070D0E386EFC0EE82EFED7382EFCD798
:107A0000030E0001F85D000E0001F959D8A006D060
:107A1000000E0001F96F010E0001F86F80B080A622
:107A200006D0000E0001FB6F010E0001FA6F00018D
:107A3000FB51FA11D8B47BEF38F00001F851020A7B
:107A4000F911D8A436D01BEC34F0010E88EC33F0D9
:107A50000C0E88EC33F0010E046E7F0E066E2B0EBA
:107A6000056E010E37EC31F0010E046E7F0E066ECE
:107A70004F0E056E020E37EC31F0820E386EDE0EC0
:107A8000E82EFED7382EFCD7820E386EDE0EE82E9A
:107A9000FED7382EFCD7820E386EDE0EE82EFED7CB
:107AA000382EFCD7820E386EDE0EE82EFED7382E2A
:107AB000FCD780A422D1000E426E000E416E1BEC5A
:107AC00034F0010E88EC33F00C0E88EC33F000013A
:107AD000F751386E396A3A6A38C007F039C008F091
:107AE0003AC009F007EC33F007C0F1F008C0F2F03B
:107AF0000001F751640DF3CFF3F0F4CFF4F000017F
:107B0000F1C00FF00001F2C010F0116A126A00011A
:107B1000000E146E0001C60E136E45EC35F00F50CA
:107B20000001F06F000E0001EE6FF5C00EF0F6C020
:107B30000FF0F3C010F0F4C011F031EC36F0010E8C
:107B4000046E7F0E066E5B0E056E010E37EC31F093
:107B5000000E056E040E046E000E076E010E066E1A
:107B6000B4EC30F00001F751AFEC34F0010E046ECC
:107B70007F0E066EFA0E056E020E37EC31F0070E20
:107B8000046E7F0E066E920E056E020E37EC31F01B
:107B90000001F5C00FF00001F6C010F0116A126A82
:107BA0000001000E146E0001DA0E136E45EC35F084
:107BB0000F500001EF6F040E046E0001000E066E00
:107BC0000001DA0E056E020E06EC31F0820E386E00
:107BD000DE0EE82EFED7382EFCD7820E386EDE0E73
:107BE000E82EFED7382EFCD7820E386EDE0EE82E39
:107BF000FED7382EFCD7820E386EDE0EE82EFED76A
:107C0000382EFCD7820E386EDE0EE82EFED7382EC8
:107C1000FCD7820E386EDE0EE82EFED7382EFCD74B
:107C2000820E386EDE0EE82EFED7382EFCD7820E7E
:107C3000386EDE0EE82EFED7382EFCD7820E386E58
:107C4000DE0EE82EFED7382EFCD7820E386EDE0E02
:107C5000E82EFED7382EFCD7820E386EDE0EE82EC8
:107C6000FED7382EFCD7820E386EDE0EE82EFED7F9
:107C7000382EFCD7820E386EDE0EE82EFED7382E58
:107C8000FCD7820E386EDE0EE82EFED7382EFCD7DB
:107C9000820E386EDE0EE82EFED7382EFCD7820E0E
:107CA000386EDE0EE82EFED7382EFCD7820E386EE8
:107CB000DE0EE82EFED7382EFCD7820E386EDE0E92
:107CC000E82EFED7382EFCD7820E386EDE0EE82E58
:107CD000FED7382EFCD7820E386EDE0EE82EFED789
:107CE000382EFCD780B080A404D0000E426E010E66
:107CF000416E42504110D8B4DED680B080A406D088
:107D0000000E0001FF6F010E0001FE6F80A00AD07F
:107D10000001F84BF92B0D0E386EFC0EE82EFED745
:107D2000382EFCD780A20BD00001F807D8A0F907A5
:107D30000D0E386EFC0EE82EFED7382EFCD7040E42
:107D40000001F85D000E0001F959D8A006D0000E20
:107D50000001F96F010E0001F86F0001FF51FE11E3
:107D6000D8B4FBEF37F00001F851020AF911D8A49A
:107D700067D01BEC34F0010E88EC33F00C0E88EC6D
:107D800033F0010E046E7F0E066E800E056E010E3E
:107D900037EC31F0010E046E7F0E066E1F0E056E7D
:107DA000020E37EC31F0820E386EDE0EE82EFED772
:107DB000382EFCD7820E386EDE0EE82EFED7382E17
:107DC000FCD7820E386EDE0EE82EFED7382EFCD79A
:107DD000820E386EDE0EE82EFED7382EFCD780A439
:107DE0002FD0000E0001FF6F000E0001FE6F1BEC94
:107DF00034F0010E88EC33F00C0E88EC33F0010EF9
:107E0000046E7F0E066EF50E056E010E37EC31F036
:107E1000949421EE00F010EE60F0660EDECFE6FFE7
:107E2000E82EFCD780B680A406D0000E0001FF6FBC
:107E3000010E0001FE6F0001FF51FE11D8B4D7D72B
:107E40000001F851030AF911D8A42DD01BEC34F02D
:107E5000010E88EC33F00C0E88EC33F0010E046E4A
:107E60007F0E066E050E056E010E37EC31F0820EA8
:107E7000386EDE0EE82EFED7382EFCD7820E386E16
:107E8000DE0EE82EFED7382EFCD7820E386EDE0EC0
:107E9000E82EFED7382EFCD7820E386EDE0EE82E86
:107EA000FED7382EFCD7040E0001F85D000E00014D
:107EB000F959D8A06FEF37F0000E0001F96F010EED
:107EC0000001F86F6FEF37F000556E6976657273D9
:107ED00069646164206465200050726F7965637421
:107EE0006F2046696E616C20002020204672656319
:107EF00075656E636961003D3E2046726563756518
:107F00006E636961003D3E20547269616E67756CF5
:107F100061720020202053656E6F6964616C003DC2
:107F20003E2053656E6F6964616C00202020496EAD
:107F3000677265736172003D3E20496E67726573BA
:107F4000617200202020436F6D656E7A6172003D82
:107F50003E20436F6D656E7A617200463A20203094
:107F60003030687A002020204369636C6F003D3E0A
:107F7000204369636C6F00202030303020487A0045
:107F800020202050574D003D3E2050574D002031BD
:107F9000303025002A3130302500202A37302500A6
:107FA00020313025002A3130250020323025002AAA
:107FB0003230250020333025002A3330250020348C
:107FC0003025002A3430250020353025002A353070
:107FD000250020363025002A363025002037302570
:107FE0000020383025002A3830250020393025007F
:107FF0002A39302500686F6C6F00433A200000007A
:020000040020DA
:08000000FFFFFFFFFFFFFFFF00
:020000040030CA
:0E00000000085E3CFFD381FF0FC00FE00F40F1
:00000001FF
